{
  "_format": "hh-sol-artifact-1",
  "contractName": "AccountFactory",
  "sourceName": "contracts/AccountFactory.sol",
  "abi": [
    {
      "inputs": [
        {
          "internalType": "string",
          "name": "u_name",
          "type": "string"
        },
        {
          "internalType": "uint8",
          "name": "u_genderID",
          "type": "uint8"
        },
        {
          "internalType": "uint256",
          "name": "u_age",
          "type": "uint256"
        },
        {
          "internalType": "uint8",
          "name": "u_interestID",
          "type": "uint8"
        },
        {
          "internalType": "string",
          "name": "u_bio",
          "type": "string"
        },
        {
          "internalType": "uint256",
          "name": "u_locationID",
          "type": "uint256"
        }
      ],
      "name": "createAccount",
      "outputs": [],
      "stateMutability": "nonpayable",
      "type": "function"
    },
    {
      "inputs": [
        {
          "internalType": "address",
          "name": "addr",
          "type": "address"
        }
      ],
      "name": "getAccountByAddress",
      "outputs": [
        {
          "components": [
            {
              "internalType": "address",
              "name": "user_id",
              "type": "address"
            },
            {
              "internalType": "string",
              "name": "name",
              "type": "string"
            },
            {
              "internalType": "uint8",
              "name": "genderID",
              "type": "uint8"
            },
            {
              "internalType": "uint8",
              "name": "interestID",
              "type": "uint8"
            },
            {
              "internalType": "uint256",
              "name": "age",
              "type": "uint256"
            },
            {
              "internalType": "string",
              "name": "bio",
              "type": "string"
            },
            {
              "internalType": "uint256",
              "name": "locationID",
              "type": "uint256"
            }
          ],
          "internalType": "struct AccountInfo",
          "name": "",
          "type": "tuple"
        }
      ],
      "stateMutability": "view",
      "type": "function"
    },
    {
      "inputs": [],
      "name": "getPotentailMatches",
      "outputs": [
        {
          "internalType": "address[]",
          "name": "",
          "type": "address[]"
        }
      ],
      "stateMutability": "view",
      "type": "function"
    },
    {
      "inputs": [],
      "name": "getSelfAccount",
      "outputs": [
        {
          "components": [
            {
              "internalType": "address",
              "name": "user_id",
              "type": "address"
            },
            {
              "internalType": "address",
              "name": "account",
              "type": "address"
            },
            {
              "internalType": "uint256",
              "name": "locationID",
              "type": "uint256"
            },
            {
              "internalType": "uint256",
              "name": "genderID",
              "type": "uint256"
            },
            {
              "internalType": "uint256",
              "name": "interestID",
              "type": "uint256"
            },
            {
              "internalType": "uint256",
              "name": "exploredTill",
              "type": "uint256"
            }
          ],
          "internalType": "struct AccountFactory.AccountWithLocation",
          "name": "",
          "type": "tuple"
        }
      ],
      "stateMutability": "view",
      "type": "function"
    },
    {
      "inputs": [],
      "name": "numberOfAccounts",
      "outputs": [
        {
          "internalType": "uint256",
          "name": "",
          "type": "uint256"
        }
      ],
      "stateMutability": "view",
      "type": "function"
    },
    {
      "inputs": [],
      "name": "updateExploredTill",
      "outputs": [],
      "stateMutability": "nonpayable",
      "type": "function"
    }
  ],
  "bytecode": "0x608060405234801561001057600080fd5b50612b60806100206000396000f3fe60806040523480156200001157600080fd5b50600436106200006a5760003560e01c80630f03e4c3146200006f57806342585865146200009157806346804c8914620000b157806393b1786714620000bd578063b8e85fec14620000df578063e4c10afe1462000115575b600080fd5b6200007962000137565b60405162000088919062000b9a565b60405180910390f35b620000af6004803603810190620000a9919062000d9c565b62000144565b005b620000bb62000311565b005b620000c762000392565b604051620000d6919062000f78565b60405180910390f35b620000fd6004803603810190620000f7919062000fcd565b62000847565b6040516200010c91906200115b565b60405180910390f35b6200011f620008cf565b6040516200012e919062001206565b60405180910390f35b6000600180549050905090565b6000338787878787876040516200015b9062000ab6565b6200016d979695949392919062001297565b604051809103906000f0801580156200018a573d6000803e3d6000fd5b509050600060018054905090506000600180816001815401808255809150500390600052602060002090600602019050338160000160006101000a81548173ffffffffffffffffffffffffffffffffffffffff021916908373ffffffffffffffffffffffffffffffffffffffff160217905550828160010160006101000a81548173ffffffffffffffffffffffffffffffffffffffff021916908373ffffffffffffffffffffffffffffffffffffffff1602179055508381600201819055508760ff1681600301819055508560ff1681600401819055506000816005018190555081600260003373ffffffffffffffffffffffffffffffffffffffff1673ffffffffffffffffffffffffffffffffffffffff1681526020019081526020016000208190555060016000803373ffffffffffffffffffffffffffffffffffffffff1673ffffffffffffffffffffffffffffffffffffffff16815260200190815260200160002060006101000a81548160ff021916908315150217905550505050505050505050565b6001600260003373ffffffffffffffffffffffffffffffffffffffff1673ffffffffffffffffffffffffffffffffffffffff168152602001908152602001600020548154811062000367576200036662001322565b5b906000526020600020906006020160050160008154809291906200038b9062001380565b9190505550565b606060006001600260003373ffffffffffffffffffffffffffffffffffffffff1673ffffffffffffffffffffffffffffffffffffffff1681526020019081526020016000205481548110620003ec57620003eb62001322565b5b906000526020600020906006020160020154905060006001600260003373ffffffffffffffffffffffffffffffffffffffff1673ffffffffffffffffffffffffffffffffffffffff168152602001908152602001600020548154811062000458576200045762001322565b5b906000526020600020906006020160040154905060006001600260003373ffffffffffffffffffffffffffffffffffffffff1673ffffffffffffffffffffffffffffffffffffffff1681526020019081526020016000205481548110620004c457620004c362001322565b5b906000526020600020906006020160030154905060006001600260003373ffffffffffffffffffffffffffffffffffffffff1673ffffffffffffffffffffffffffffffffffffffff168152602001908152602001600020548154811062000530576200052f62001322565b5b90600052602060002090600602016005015490506000600180549050600a836200055b9190620013cd565b106200057a576001808054905062000574919062001408565b6200058a565b600a82620005899190620013cd565b5b90506000600a67ffffffffffffffff811115620005ac57620005ab62000be6565b5b604051908082528060200260200182016040528015620005db5781602001602082028036833780820191505090505b5090506000808490505b8381116200083957876001828154811062000605576200060462001322565b5b9060005260206000209060060201600201541480156200069957503373ffffffffffffffffffffffffffffffffffffffff16600182815481106200064e576200064d62001322565b5b906000526020600020906006020160000160009054906101000a900473ffffffffffffffffffffffffffffffffffffffff1673ffffffffffffffffffffffffffffffffffffffff1614155b1562000823576002871480156200070b5750600260018281548110620006c457620006c362001322565b5b90600052602060002090600602016004015414806200070a57508560018281548110620006f657620006f562001322565b5b906000526020600020906006020160040154145b5b8062000772575086600182815481106200072a576200072962001322565b5b90600052602060002090600602016003015414801562000771575085600182815481106200075d576200075c62001322565b5b906000526020600020906006020160040154145b5b156200082257600181815481106200078f576200078e62001322565b5b906000526020600020906006020160010160009054906101000a900473ffffffffffffffffffffffffffffffffffffffff16838381518110620007d757620007d662001322565b5b602002602001019073ffffffffffffffffffffffffffffffffffffffff16908173ffffffffffffffffffffffffffffffffffffffff168152505081806200081e9062001380565b9250505b5b8080620008309062001380565b915050620005e5565b508197505050505050505090565b6200085162000ac4565b8173ffffffffffffffffffffffffffffffffffffffff16637e8e77336040518163ffffffff1660e01b8152600401600060405180830381865afa1580156200089d573d6000803e3d6000fd5b505050506040513d6000823e3d601f19601f82011682018060405250810190620008c8919062001615565b9050919050565b620008d962000b1d565b600115156000803373ffffffffffffffffffffffffffffffffffffffff1673ffffffffffffffffffffffffffffffffffffffff16815260200190815260200160002060009054906101000a900460ff161515146200096e576040517f08c379a00000000000000000000000000000000000000000000000000000000081526004016200096590620016b6565b60405180910390fd5b6001600260003373ffffffffffffffffffffffffffffffffffffffff1673ffffffffffffffffffffffffffffffffffffffff1681526020019081526020016000205481548110620009c457620009c362001322565b5b90600052602060002090600602016040518060c00160405290816000820160009054906101000a900473ffffffffffffffffffffffffffffffffffffffff1673ffffffffffffffffffffffffffffffffffffffff1673ffffffffffffffffffffffffffffffffffffffff1681526020016001820160009054906101000a900473ffffffffffffffffffffffffffffffffffffffff1673ffffffffffffffffffffffffffffffffffffffff1673ffffffffffffffffffffffffffffffffffffffff168152602001600282015481526020016003820154815260200160048201548152602001600582015481525050905090565b61145280620016d983390190565b6040518060e00160405280600073ffffffffffffffffffffffffffffffffffffffff16815260200160608152602001600060ff168152602001600060ff1681526020016000815260200160608152602001600081525090565b6040518060c00160405280600073ffffffffffffffffffffffffffffffffffffffff168152602001600073ffffffffffffffffffffffffffffffffffffffff168152602001600081526020016000815260200160008152602001600081525090565b6000819050919050565b62000b948162000b7f565b82525050565b600060208201905062000bb1600083018462000b89565b92915050565b6000604051905090565b600080fd5b600080fd5b600080fd5b600080fd5b6000601f19601f8301169050919050565b7f4e487b7100000000000000000000000000000000000000000000000000000000600052604160045260246000fd5b62000c208262000bd5565b810181811067ffffffffffffffff8211171562000c425762000c4162000be6565b5b80604052505050565b600062000c5762000bb7565b905062000c65828262000c15565b919050565b600067ffffffffffffffff82111562000c885762000c8762000be6565b5b62000c938262000bd5565b9050602081019050919050565b82818337600083830152505050565b600062000cc662000cc08462000c6a565b62000c4b565b90508281526020810184848401111562000ce55762000ce462000bd0565b5b62000cf284828562000ca0565b509392505050565b600082601f83011262000d125762000d1162000bcb565b5b813562000d2484826020860162000caf565b91505092915050565b600060ff82169050919050565b62000d458162000d2d565b811462000d5157600080fd5b50565b60008135905062000d658162000d3a565b92915050565b62000d768162000b7f565b811462000d8257600080fd5b50565b60008135905062000d968162000d6b565b92915050565b60008060008060008060c0878903121562000dbc5762000dbb62000bc1565b5b600087013567ffffffffffffffff81111562000ddd5762000ddc62000bc6565b5b62000deb89828a0162000cfa565b965050602062000dfe89828a0162000d54565b955050604062000e1189828a0162000d85565b945050606062000e2489828a0162000d54565b935050608087013567ffffffffffffffff81111562000e485762000e4762000bc6565b5b62000e5689828a0162000cfa565b92505060a062000e6989828a0162000d85565b9150509295509295509295565b600081519050919050565b600082825260208201905092915050565b6000819050602082019050919050565b600073ffffffffffffffffffffffffffffffffffffffff82169050919050565b600062000ecf8262000ea2565b9050919050565b62000ee18162000ec2565b82525050565b600062000ef5838362000ed6565b60208301905092915050565b6000602082019050919050565b600062000f1b8262000e76565b62000f27818562000e81565b935062000f348362000e92565b8060005b8381101562000f6b57815162000f4f888262000ee7565b975062000f5c8362000f01565b92505060018101905062000f38565b5085935050505092915050565b6000602082019050818103600083015262000f94818462000f0e565b905092915050565b62000fa78162000ec2565b811462000fb357600080fd5b50565b60008135905062000fc78162000f9c565b92915050565b60006020828403121562000fe65762000fe562000bc1565b5b600062000ff68482850162000fb6565b91505092915050565b600081519050919050565b600082825260208201905092915050565b60005b838110156200103b5780820151818401526020810190506200101e565b60008484015250505050565b6000620010548262000fff565b6200106081856200100a565b9350620010728185602086016200101b565b6200107d8162000bd5565b840191505092915050565b620010938162000d2d565b82525050565b620010a48162000b7f565b82525050565b600060e083016000830151620010c4600086018262000ed6565b5060208301518482036020860152620010de828262001047565b9150506040830151620010f5604086018262001088565b5060608301516200110a606086018262001088565b5060808301516200111f608086018262001099565b5060a083015184820360a086015262001139828262001047565b91505060c08301516200115060c086018262001099565b508091505092915050565b60006020820190508181036000830152620011778184620010aa565b905092915050565b60c08201600082015162001197600085018262000ed6565b506020820151620011ac602085018262000ed6565b506040820151620011c1604085018262001099565b506060820151620011d6606085018262001099565b506080820151620011eb608085018262001099565b5060a08201516200120060a085018262001099565b50505050565b600060c0820190506200121d60008301846200117f565b92915050565b6200122e8162000ec2565b82525050565b600082825260208201905092915050565b6000620012528262000fff565b6200125e818562001234565b9350620012708185602086016200101b565b6200127b8162000bd5565b840191505092915050565b620012918162000d2d565b82525050565b600060e082019050620012ae600083018a62001223565b8181036020830152620012c2818962001245565b9050620012d3604083018862001286565b620012e2606083018762000b89565b620012f1608083018662001286565b81810360a083015262001305818562001245565b90506200131660c083018462000b89565b98975050505050505050565b7f4e487b7100000000000000000000000000000000000000000000000000000000600052603260045260246000fd5b7f4e487b7100000000000000000000000000000000000000000000000000000000600052601160045260246000fd5b60006200138d8262000b7f565b91507fffffffffffffffffffffffffffffffffffffffffffffffffffffffffffffffff8203620013c257620013c162001351565b5b600182019050919050565b6000620013da8262000b7f565b9150620013e78362000b7f565b925082820190508082111562001402576200140162001351565b5b92915050565b6000620014158262000b7f565b9150620014228362000b7f565b92508282039050818111156200143d576200143c62001351565b5b92915050565b600080fd5b600080fd5b6000815190506200145e8162000f9c565b92915050565b60006200147b620014758462000c6a565b62000c4b565b9050828152602081018484840111156200149a576200149962000bd0565b5b620014a78482856200101b565b509392505050565b600082601f830112620014c757620014c662000bcb565b5b8151620014d984826020860162001464565b91505092915050565b600081519050620014f38162000d3a565b92915050565b6000815190506200150a8162000d6b565b92915050565b600060e0828403121562001529576200152862001443565b5b6200153560e062000c4b565b9050600062001547848285016200144d565b600083015250602082015167ffffffffffffffff8111156200156e576200156d62001448565b5b6200157c84828501620014af565b60208301525060406200159284828501620014e2565b6040830152506060620015a884828501620014e2565b6060830152506080620015be84828501620014f9565b60808301525060a082015167ffffffffffffffff811115620015e557620015e462001448565b5b620015f384828501620014af565b60a08301525060c06200160984828501620014f9565b60c08301525092915050565b6000602082840312156200162e576200162d62000bc1565b5b600082015167ffffffffffffffff8111156200164f576200164e62000bc6565b5b6200165d8482850162001510565b91505092915050565b7f5573657220646f6573206e6f7420657869737421000000000000000000000000600082015250565b60006200169e60148362001234565b9150620016ab8262001666565b602082019050919050565b60006020820190508181036000830152620016d1816200168f565b905091905056fe60806040523480156200001157600080fd5b506040516200145238038062001452833981810160405281019062000037919062000372565b866000800160006101000a81548173ffffffffffffffffffffffffffffffffffffffff021916908373ffffffffffffffffffffffffffffffffffffffff16021790555085600060010190816200008e9190620006a4565b50836000600301819055508160006004019081620000ad9190620006a4565b508060006005018190555084600060020160006101000a81548160ff021916908360ff16021790555082600060020160016101000a81548160ff021916908360ff160217905550505050505050506200078b565b6000604051905090565b600080fd5b600080fd5b600073ffffffffffffffffffffffffffffffffffffffff82169050919050565b6000620001428262000115565b9050919050565b620001548162000135565b81146200016057600080fd5b50565b600081519050620001748162000149565b92915050565b600080fd5b600080fd5b6000601f19601f8301169050919050565b7f4e487b7100000000000000000000000000000000000000000000000000000000600052604160045260246000fd5b620001cf8262000184565b810181811067ffffffffffffffff82111715620001f157620001f062000195565b5b80604052505050565b60006200020662000101565b9050620002148282620001c4565b919050565b600067ffffffffffffffff82111562000237576200023662000195565b5b620002428262000184565b9050602081019050919050565b60005b838110156200026f57808201518184015260208101905062000252565b60008484015250505050565b6000620002926200028c8462000219565b620001fa565b905082815260208101848484011115620002b157620002b06200017f565b5b620002be8482856200024f565b509392505050565b600082601f830112620002de57620002dd6200017a565b5b8151620002f08482602086016200027b565b91505092915050565b600060ff82169050919050565b6200031181620002f9565b81146200031d57600080fd5b50565b600081519050620003318162000306565b92915050565b6000819050919050565b6200034c8162000337565b81146200035857600080fd5b50565b6000815190506200036c8162000341565b92915050565b600080600080600080600060e0888a0312156200039457620003936200010b565b5b6000620003a48a828b0162000163565b975050602088015167ffffffffffffffff811115620003c857620003c762000110565b5b620003d68a828b01620002c6565b9650506040620003e98a828b0162000320565b9550506060620003fc8a828b016200035b565b94505060806200040f8a828b0162000320565b93505060a088015167ffffffffffffffff81111562000433576200043262000110565b5b620004418a828b01620002c6565b92505060c0620004548a828b016200035b565b91505092959891949750929550565b600081519050919050565b7f4e487b7100000000000000000000000000000000000000000000000000000000600052602260045260246000fd5b60006002820490506001821680620004b657607f821691505b602082108103620004cc57620004cb6200046e565b5b50919050565b60008190508160005260206000209050919050565b60006020601f8301049050919050565b600082821b905092915050565b600060088302620005367fffffffffffffffffffffffffffffffffffffffffffffffffffffffffffffffff82620004f7565b620005428683620004f7565b95508019841693508086168417925050509392505050565b6000819050919050565b6000620005856200057f620005798462000337565b6200055a565b62000337565b9050919050565b6000819050919050565b620005a18362000564565b620005b9620005b0826200058c565b84845462000504565b825550505050565b600090565b620005d0620005c1565b620005dd81848462000596565b505050565b5b818110156200060557620005f9600082620005c6565b600181019050620005e3565b5050565b601f82111562000654576200061e81620004d2565b6200062984620004e7565b8101602085101562000639578190505b620006516200064885620004e7565b830182620005e2565b50505b505050565b600082821c905092915050565b6000620006796000198460080262000659565b1980831691505092915050565b600062000694838362000666565b9150826002028217905092915050565b620006af8262000463565b67ffffffffffffffff811115620006cb57620006ca62000195565b5b620006d782546200049d565b620006e482828562000609565b600060209050601f8311600181146200071c576000841562000707578287015190505b62000713858262000686565b86555062000783565b601f1984166200072c86620004d2565b60005b8281101562000756578489015182556001820191506020850194506020810190506200072f565b8683101562000776578489015162000772601f89168262000666565b8355505b6001600288020188555050505b505050505050565b610cb7806200079b6000396000f3fe608060405234801561001057600080fd5b50600436106100625760003560e01c80637e8e7733146100675780639c65609b14610085578063a3c8f422146100a3578063df6c5b2c146100c1578063f990d145146100dd578063fd02fa671461010d575b600080fd5b61006f610129565b60405161007c919061099a565b60405180910390f35b61008d61030b565b60405161009a9190610a6b565b60405180910390f35b6100ab61039c565b6040516100b89190610a6b565b60405180910390f35b6100db60048036038101906100d69190610abe565b61042d565b005b6100f760048036038101906100f29190610abe565b61067b565b6040516101049190610b06565b60405180910390f35b61012760048036038101906101229190610abe565b6106d4565b005b610131610798565b60006040518060e00160405290816000820160009054906101000a900473ffffffffffffffffffffffffffffffffffffffff1673ffffffffffffffffffffffffffffffffffffffff1673ffffffffffffffffffffffffffffffffffffffff1681526020016001820180546101a490610b50565b80601f01602080910402602001604051908101604052809291908181526020018280546101d090610b50565b801561021d5780601f106101f25761010080835404028352916020019161021d565b820191906000526020600020905b81548152906001019060200180831161020057829003601f168201915b505050505081526020016002820160009054906101000a900460ff1660ff1660ff1681526020016002820160019054906101000a900460ff1660ff1660ff1681526020016003820154815260200160048201805461027a90610b50565b80601f01602080910402602001604051908101604052809291908181526020018280546102a690610b50565b80156102f35780601f106102c8576101008083540402835291602001916102f3565b820191906000526020600020905b8154815290600101906020018083116102d657829003601f168201915b50505050508152602001600582015481525050905090565b6060600660000180548060200260200160405190810160405280929190818152602001828054801561039257602002820191906000526020600020905b8160009054906101000a900473ffffffffffffffffffffffffffffffffffffffff1673ffffffffffffffffffffffffffffffffffffffff1681526020019060010190808311610348575b5050505050905090565b6060600860000180548060200260200160405190810160405280929190818152602001828054801561042357602002820191906000526020600020905b8160009054906101000a900473ffffffffffffffffffffffffffffffffffffffff1673ffffffffffffffffffffffffffffffffffffffff16815260200190600101908083116103d9575b5050505050905090565b600660010160008273ffffffffffffffffffffffffffffffffffffffff1673ffffffffffffffffffffffffffffffffffffffff16815260200190815260200160002060009054906101000a900460ff16156104bd576040517f08c379a00000000000000000000000000000000000000000000000000000000081526004016104b490610bde565b60405180910390fd5b6006600001819080600181540180825580915050600190039060005260206000200160009091909190916101000a81548173ffffffffffffffffffffffffffffffffffffffff021916908373ffffffffffffffffffffffffffffffffffffffff1602179055506001600660010160008373ffffffffffffffffffffffffffffffffffffffff1673ffffffffffffffffffffffffffffffffffffffff16815260200190815260200160002060006101000a81548160ff02191690831515021790555060008173ffffffffffffffffffffffffffffffffffffffff1663f990d145306040518263ffffffff1660e01b81526004016105b99190610c0d565b602060405180830381865afa1580156105d6573d6000803e3d6000fd5b505050506040513d601f19601f820116820180604052508101906105fa9190610c54565b905080156106775761060b826106d4565b8173ffffffffffffffffffffffffffffffffffffffff1663fd02fa67306040518263ffffffff1660e01b81526004016106449190610c0d565b600060405180830381600087803b15801561065e57600080fd5b505af1158015610672573d6000803e3d6000fd5b505050505b5050565b6000600660010160008373ffffffffffffffffffffffffffffffffffffffff1673ffffffffffffffffffffffffffffffffffffffff16815260200190815260200160002060009054906101000a900460ff169050919050565b6008600001819080600181540180825580915050600190039060005260206000200160009091909190916101000a81548173ffffffffffffffffffffffffffffffffffffffff021916908373ffffffffffffffffffffffffffffffffffffffff1602179055506001600860010160008373ffffffffffffffffffffffffffffffffffffffff1673ffffffffffffffffffffffffffffffffffffffff16815260200190815260200160002060006101000a81548160ff02191690831515021790555050565b6040518060e00160405280600073ffffffffffffffffffffffffffffffffffffffff16815260200160608152602001600060ff168152602001600060ff1681526020016000815260200160608152602001600081525090565b600073ffffffffffffffffffffffffffffffffffffffff82169050919050565b600061081c826107f1565b9050919050565b61082c81610811565b82525050565b600081519050919050565b600082825260208201905092915050565b60005b8381101561086c578082015181840152602081019050610851565b60008484015250505050565b6000601f19601f8301169050919050565b600061089482610832565b61089e818561083d565b93506108ae81856020860161084e565b6108b781610878565b840191505092915050565b600060ff82169050919050565b6108d8816108c2565b82525050565b6000819050919050565b6108f1816108de565b82525050565b600060e08301600083015161090f6000860182610823565b50602083015184820360208601526109278282610889565b915050604083015161093c60408601826108cf565b50606083015161094f60608601826108cf565b50608083015161096260808601826108e8565b5060a083015184820360a086015261097a8282610889565b91505060c083015161098f60c08601826108e8565b508091505092915050565b600060208201905081810360008301526109b481846108f7565b905092915050565b600081519050919050565b600082825260208201905092915050565b6000819050602082019050919050565b60006109f48383610823565b60208301905092915050565b6000602082019050919050565b6000610a18826109bc565b610a2281856109c7565b9350610a2d836109d8565b8060005b83811015610a5e578151610a4588826109e8565b9750610a5083610a00565b925050600181019050610a31565b5085935050505092915050565b60006020820190508181036000830152610a858184610a0d565b905092915050565b600080fd5b610a9b81610811565b8114610aa657600080fd5b50565b600081359050610ab881610a92565b92915050565b600060208284031215610ad457610ad3610a8d565b5b6000610ae284828501610aa9565b91505092915050565b60008115159050919050565b610b0081610aeb565b82525050565b6000602082019050610b1b6000830184610af7565b92915050565b7f4e487b7100000000000000000000000000000000000000000000000000000000600052602260045260246000fd5b60006002820490506001821680610b6857607f821691505b602082108103610b7b57610b7a610b21565b5b50919050565b600082825260208201905092915050565b7f5573657220616c7265616479206c696b65640000000000000000000000000000600082015250565b6000610bc8601283610b81565b9150610bd382610b92565b602082019050919050565b60006020820190508181036000830152610bf781610bbb565b9050919050565b610c0781610811565b82525050565b6000602082019050610c226000830184610bfe565b92915050565b610c3181610aeb565b8114610c3c57600080fd5b50565b600081519050610c4e81610c28565b92915050565b600060208284031215610c6a57610c69610a8d565b5b6000610c7884828501610c3f565b9150509291505056fea2646970667358221220b5c6906574752b895850e0a945c2aeb74264f1acba7072dcb63962668055a61064736f6c63430008120033a2646970667358221220be948bbc9c8a52121824963147e1ed7097882133c286912a93fffa9db2b9cee464736f6c63430008120033",
  "linkReferences": {},
  "deployedLinkReferences": {}
}